123MUNICIPIO X         N01200012345678BRUTO               +0000033316621750
123MUNICIPIO X         N01200012345678COMISION_EMISOR     -0000000039761557
123MUNICIPIO X         N01200012345678IVA_COMISION_EMISOR -0000000008349928
123MUNICIPIO X         N01200012345678NETO                +0000033268510265
543EMPRESA Y           B04500087654321BRUTO               +0000122788804325
543EMPRESA Y           B04500087654321COMISION_EMISOR     -0000000032479183
543EMPRESA Y           B04500087654321IVA_COMISION_EMISOR -0000000006785432
543EMPRESA Y           B04500087654321COMISION_ADHERENTE  -0000001072620146
543EMPRESA Y           B04500087654321IVA_COMISION_ADHEREN+0000000225250231
543EMPRESA Y           B04500087654321NETO                +0000121451669333
777VISA RECARGAS       B00000000000999BRUTO               +0000007833669000
777VISA RECARGAS       B00000000000999COMISION_EMISOR     -0000000000462696
777VISA RECARGAS       B00000000000999IVA_COMISION_EMISOR -0000000000097162
777VISA RECARGAS       B00000000000999COMISION_ADHERENTE  -0000000000462696
777VISA RECARGAS       B00000000000999IVA_COMISION_ADHEREN-0000000000097162
777VISA RECARGAS       B00000000000999NETO                +0000007833669000
547EMPRESA Z           B00000000000000BRUTO               +0000017698269725
547EMPRESA Z           B00000000000000COMISION_EMISOR     -0000000001363500
547EMPRESA Z           B00000000000000IVA_COMISION_EMISOR -0000000000286335
547EMPRESA Z           B00000000000000COMISION_ADHERENTE  -0000000001363500
547EMPRESA Z           B00000000000000IVA_COMISION_ADHEREN-0000000000286335
547EMPRESA Z           B00000000000000NETO                +0000017698269725
